:060000000A128A110E280D
:10000800FE00030883120313B1000A08B2000A12A3
:100018008A1111280A128A11AB2C83160C1F242965
:1000280083120C1B0B1F24290C131E08AD00AE01F4
:100038000830FE000310AD0DAE0DFE0B1E28831612
:100048001E0883122D04D9002E08DA00DB01DC011A
:100058001430A000A101A201A301C830F400F501E9
:10006800F601F7015C08F3005B08F2005A08F1009A
:100078005908F000B2210A128A117008AD007108FF
:10008800AE007208AF007308B0000A300310B00C5D
:10009800AF0CAE0CAD0CFF3E031D4A283008A7007C
:1000A8002F08A6002E08A5002D08A4006A210A1210
:1000B8008A112308DC002208DB002108DA00200866
:1000C800D9005C08F3005B08F2005A08F1005908EF
:1000D800F0003230F400F501F601F701B2210A12FE
:1000E8008A117308D8007208D7007108D600700802
:1000F800D5000A30F000F101F201F3015808F700C9
:100108005708F6005608F5005508F4002C210A1285
:100118008A117308D0007208CF007108CE007008E9
:10012800CD000A30A000A101A201A3014D0855028B
:10013800AD005608AE004E08031C4E0FAE0257081D
:10014800AF004F08031C4F0FAF025808B00050080B
:10015800031C500FB0023008A7002F08A6002E0875
:10016800A5002D08A4006A210A128A11E5210A12A5
:100178008A112C210A128A117308CC007208CB004C
:100188007108CA007008C9000A30A000A101A201C4
:10019800A30149085502AD005608AE004A08031CE1
:1001A8004A0FAE025708AF004B08031C4B0FAF02B3
:1001B8005808B0004C08031C4C0FB0023008A700C8
:1001C8002F08A6002E08A5002D08A4006A210A12EF
:1001D8008A11E5210A128A112C210A128A11730840
:1001E800D4007208D3007108D2007008D1000A3018
:1001F800A000A101A201A30151085502AD005608B3
:10020800AE005208031C520FAE025708AF00530845
:10021800031C530FAF025808B0005408031C540FB6
:10022800B0023008A7002F08A6002E08A5002D0848
:10023800A4006A210A128A11E5210A128A112C21C6
:10024800831232088A0031088300FE0E7E0E0900F0
:10025800730872047104700403196129F801F80A1B
:10026800F31B3C290310F00DF10DF20DF30D3329AA
:1002780073087702031D4A2972087602031D4A296A
:1002880071087502031D4A2970087402031C5B2952
:100298007008F4027108031C710FF5027208031C40
:1002A800720FF6027308031C730FF7020310F30CA6
:1002B800F20CF10CF00CF80B3C297708F3007608E7
:1002C800F2007508F1007408F0000800A801A901FF
:1002D800AA01AB0123082204210420040319A92937
:1002E800AC01AC0AA31B7E290310A00DA10DA20D21
:1002F800A30D75290310A80DA90DAA0DAB0D230890
:100308002702031D912922082602031D912921088D
:100318002502031D912920082402031CA329200873
:10032800A4022108031C210FA5022208031C220F86
:10033800A6022308031C230FA70228140310A30CEA
:10034800A20CA10CA00CAC0B7E292B08A3002A0838
:10035800A2002908A1002808A0000800F801F90156
:10036800FA01FB01701CCC297408F8077508031101
:100378000318013E031DF907760803110318013E0F
:10038800031DFA07770803110318013E031DFB0735
:100398000310F40DF50DF60DF70D0310F30CF20C28
:1003A800F10CF00C7308720471047004031DB62973
:1003B8007B08F3007A08F2007908F1007808F00069
:1003C80008002308D8002208D7002108D6002008F2
:1003D800D5000A30F000F101F201F3015808F700E6
:1003E8005708F6005608F5005508F400080083166B
:1003F8000317880189010C308312031397009D00AD
:100408008316031788120813831203130914891417
:1004180083160317091089108911891202300313F2
:10042800B5000330B400BA30B300B30B192AB40BCB
:10043800192AB50B192A0A128A11C4240A128A1118
:100448000A128A11E5240A128A110A128A11EB2467
:100458000A128A110A128A1191240A128A110A129E
:100468008A11DA240A128A1183128C1E382A1A0871
:100478008316B600623A031D4A2A831295019B012E
:100488005908950059089B000915891483163608E0
:10049800663A031D582A831295019B015908950055
:1004A80059089B0009118910831636086C3A031DF8
:1004B800D02A831295019B015C088316A30083123E
:1004C8005B088316A20083125A088316A1008312C0
:1004D80059088316A0000A128A1151230A128A1198
:1004E8002008A7002108A8002208A9006630A40057
:1004F800A630A5003F30A6000A128A117C230A12F2
:100508008A1124088312BB00831625088312BC00B5
:10051800831626088312BD000A128A1130240A1293
:100528008A113B0895005C088316A30083125B08B8
:100538008316A20083125A088316A1008312590851
:100548008316A0000A128A1151230A128A11200860
:10055800A7002108A8002208A9006630A400A63038
:10056800A5003F30A6000A128A117C230A128A11BC
:1005780024088312BB00831625088312BC00831647
:1005880026088312BD000A128A1130240A128A1121
:100598003B089B000915891083163608723A031D1B
:1005A800482B831295019B015C088316A3008312D4
:1005B8005B088316A20083125A088316A1008312CF
:1005C80059088316A0000A128A1151230A128A11A7
:1005D8002008A7002108A8002208A9006630A40066
:1005E800A630A5003F30A6000A128A117C230A1201
:1005F8008A1124088312BB00831625088312BC00C5
:10060800831626088312BD000A128A1130240A12A2
:100618008A113B0895005C088316A30083125B08C7
:100628008316A20083125A088316A1008312590860
:100638008316A0000A128A1151230A128A1120086F
:10064800A7002108A8002208A9006630A400A63047
:10065800A5003F30A6000A128A117C230A128A11CB
:1006680024088312BB00831625088312BC00831656
:1006780026088312BD000A128A1130240A128A1130
:100688003B089B000911891483163608733A031D29
:10069800382A831295019B01382A8E308312C800AC
:1006A800FF30831623050319612B0310A30CA20C3A
:1006B800A10CA00C8312C80A542B20088312B30083
:1006C800831621088312B400831622088312B5000A
:1006D8004808B600B701F22333088316A000831236
:1006E80034088316A100831235088316A200080077
:1006F8002708AA002808AB002908AC0003102B0D16
:100708002C0DB100B108031D8D2BA401A501A60174
:1007180008002408AA002508AB002608AC0003102E
:100728002B0D2C0DB200B208031D9E2BA401A501B0
:10073800A6010800AE01AF01B00189303207AA0056
:10074800B1022908B2002608B2068030B205A817FF
:10075800A901A517A6011830AD000310AE0DAF0D05
:10076800B00D26082902031DBF2B25082802031DEA
:10077800BF2B24082702031CCD2B2408A702250819
:10078800031C250FA8022608031C260AA9022E14FA
:100798000310A70DA80DA90DAD0BB12B2E088312C0
:1007A800B30083162F088312B4008316300883120F
:1007B800B500831631088312B600831632088312F7
:1007C800B700F22333088316A40083123408831673
:1007D800A500831235088316A600080036080319F9
:1007E800FA2B350834043304031D032CB301B40178
:1007F800B5010800B60A0310B50CB40CB30CFE30F2
:1008080035050319122CFE2BB60AB30A0319B40ACC
:100818000319B50A0310B50CB40CB30CFF30350539
:1008280003191C2C082CB6030310B30DB40DB50D19
:10083800B41F172C361CB4130310B60C3608BA00B4
:10084800B901B8013808B3043908B4043A08B50442
:100858003708031DB51708003B08BF003C08C00057
:100868003D08C1000310400D410DC700C708031D16
:10087800422CBB01BC01BD01BE0108003B08BF0002
:100888003C08C0003D08C10017300310C10CC00C63
:10089800BF0CFF3E031D492C3F08C200BC17BD0119
:1008A8003B08C3003C08C4003D08C500C6018E30A3
:1008B800C702C71F6C2C4708803A8F3E031C3D2C8B
:1008C8000310C60CC50CC40CC30CC70F642C7A2CBF
:1008D8001830470203183D2CC70803197A2C031057
:1008E800C30DC40DC50DC60DC703702C42080319EE
:1008F800882CC309C409C509C609C30A0319C40A4F
:100908000319C50A0319C60A4608BE004508BD00F2
:100918004408BC004308BB0008000317081403136D
:10092800051483129E0183169E019F019F1783124F
:100938009F011F179F179F111F119F121F121F142E
:10094800A52CA62C6400831203139F140800D90158
:10095800DA01DB01DC010130C900CA01CB01CC019D
:10096800CD00CE01CF01D001D100D201D301D401F5
:10097800D500D601D701D80183010A128A11FB29B3
:100988000C30831603139900181518128312981740
:100998001816981283160C128C1218138312181337
:1009A800831698129816071387170800831687105E
:1009B8000711063083129B009500831689100911D0
:1009C80008008B170B170C1783120C1308009201E1
:0A09D8001215C730831692000800C4
:02400E00E420AC
:00000001FF
